{
  "contractName": "TierionNetworkToken",
  "abi": [
    {
      "constant": true,
      "inputs": [],
      "name": "name",
      "outputs": [
        {
          "name": "",
          "type": "string"
        }
      ],
      "payable": false,
      "stateMutability": "view",
      "type": "function"
    },
    {
      "constant": false,
      "inputs": [
        {
          "name": "_spender",
          "type": "address"
        },
        {
          "name": "_value",
          "type": "uint256"
        }
      ],
      "name": "approve",
      "outputs": [
        {
          "name": "",
          "type": "bool"
        }
      ],
      "payable": false,
      "stateMutability": "nonpayable",
      "type": "function"
    },
    {
      "constant": true,
      "inputs": [],
      "name": "totalSupply",
      "outputs": [
        {
          "name": "",
          "type": "uint256"
        }
      ],
      "payable": false,
      "stateMutability": "view",
      "type": "function"
    },
    {
      "constant": false,
      "inputs": [
        {
          "name": "_from",
          "type": "address"
        },
        {
          "name": "_to",
          "type": "address"
        },
        {
          "name": "_value",
          "type": "uint256"
        }
      ],
      "name": "transferFrom",
      "outputs": [
        {
          "name": "",
          "type": "bool"
        }
      ],
      "payable": false,
      "stateMutability": "nonpayable",
      "type": "function"
    },
    {
      "constant": true,
      "inputs": [],
      "name": "INITIAL_SUPPLY",
      "outputs": [
        {
          "name": "",
          "type": "uint256"
        }
      ],
      "payable": false,
      "stateMutability": "view",
      "type": "function"
    },
    {
      "constant": true,
      "inputs": [],
      "name": "decimals",
      "outputs": [
        {
          "name": "",
          "type": "uint8"
        }
      ],
      "payable": false,
      "stateMutability": "view",
      "type": "function"
    },
    {
      "constant": false,
      "inputs": [],
      "name": "unpause",
      "outputs": [
        {
          "name": "",
          "type": "bool"
        }
      ],
      "payable": false,
      "stateMutability": "nonpayable",
      "type": "function"
    },
    {
      "constant": true,
      "inputs": [],
      "name": "paused",
      "outputs": [
        {
          "name": "",
          "type": "bool"
        }
      ],
      "payable": false,
      "stateMutability": "view",
      "type": "function"
    },
    {
      "constant": true,
      "inputs": [
        {
          "name": "_owner",
          "type": "address"
        }
      ],
      "name": "balanceOf",
      "outputs": [
        {
          "name": "balance",
          "type": "uint256"
        }
      ],
      "payable": false,
      "stateMutability": "view",
      "type": "function"
    },
    {
      "constant": false,
      "inputs": [],
      "name": "pause",
      "outputs": [
        {
          "name": "",
          "type": "bool"
        }
      ],
      "payable": false,
      "stateMutability": "nonpayable",
      "type": "function"
    },
    {
      "constant": true,
      "inputs": [],
      "name": "owner",
      "outputs": [
        {
          "name": "",
          "type": "address"
        }
      ],
      "payable": false,
      "stateMutability": "view",
      "type": "function"
    },
    {
      "constant": true,
      "inputs": [],
      "name": "symbol",
      "outputs": [
        {
          "name": "",
          "type": "string"
        }
      ],
      "payable": false,
      "stateMutability": "view",
      "type": "function"
    },
    {
      "constant": false,
      "inputs": [
        {
          "name": "_to",
          "type": "address"
        },
        {
          "name": "_value",
          "type": "uint256"
        }
      ],
      "name": "transfer",
      "outputs": [
        {
          "name": "",
          "type": "bool"
        }
      ],
      "payable": false,
      "stateMutability": "nonpayable",
      "type": "function"
    },
    {
      "constant": true,
      "inputs": [
        {
          "name": "_owner",
          "type": "address"
        },
        {
          "name": "_spender",
          "type": "address"
        }
      ],
      "name": "allowance",
      "outputs": [
        {
          "name": "remaining",
          "type": "uint256"
        }
      ],
      "payable": false,
      "stateMutability": "view",
      "type": "function"
    },
    {
      "constant": false,
      "inputs": [
        {
          "name": "newOwner",
          "type": "address"
        }
      ],
      "name": "transferOwnership",
      "outputs": [],
      "payable": false,
      "stateMutability": "nonpayable",
      "type": "function"
    },
    {
      "inputs": [],
      "payable": false,
      "stateMutability": "nonpayable",
      "type": "constructor"
    },
    {
      "anonymous": false,
      "inputs": [],
      "name": "Pause",
      "type": "event"
    },
    {
      "anonymous": false,
      "inputs": [],
      "name": "Unpause",
      "type": "event"
    },
    {
      "anonymous": false,
      "inputs": [
        {
          "indexed": true,
          "name": "owner",
          "type": "address"
        },
        {
          "indexed": true,
          "name": "spender",
          "type": "address"
        },
        {
          "indexed": false,
          "name": "value",
          "type": "uint256"
        }
      ],
      "name": "Approval",
      "type": "event"
    },
    {
      "anonymous": false,
      "inputs": [
        {
          "indexed": true,
          "name": "from",
          "type": "address"
        },
        {
          "indexed": true,
          "name": "to",
          "type": "address"
        },
        {
          "indexed": false,
          "name": "value",
          "type": "uint256"
        }
      ],
      "name": "Transfer",
      "type": "event"
    }
  ],
  "bytecode": "0x60606040526003805460a060020a60ff0219169055341561001f57600080fd5b60038054600160a060020a033316600160a060020a0319909116811790915567016345785d8a0000600081815591825260016020526040909120556108e6806100696000396000f3006060604052600436106100da5763ffffffff7c010000000000000000000000000000000000000000000000000000000060003504166306fdde0381146100df578063095ea7b31461016957806318160ddd1461019f57806323b872dd146101c45780632ff2e9dc146101ec578063313ce567146101ff5780633f4ba83a146102285780635c975abb1461023b57806370a082311461024e5780638456cb591461026d5780638da5cb5b1461028057806395d89b41146102af578063a9059cbb146102c2578063dd62ed3e146102e4578063f2fde38b14610309575b600080fd5b34156100ea57600080fd5b6100f261032a565b60405160208082528190810183818151815260200191508051906020019080838360005b8381101561012e578082015183820152602001610116565b50505050905090810190601f16801561015b5780820380516001836020036101000a031916815260200191505b509250505060405180910390f35b341561017457600080fd5b61018b600160a060020a0360043516602435610361565b604051901515815260200160405180910390f35b34156101aa57600080fd5b6101b261038c565b60405190815260200160405180910390f35b34156101cf57600080fd5b61018b600160a060020a0360043581169060243516604435610392565b34156101f757600080fd5b6101b26103d4565b341561020a57600080fd5b6102126103e0565b60405160ff909116815260200160405180910390f35b341561023357600080fd5b61018b6103e5565b341561024657600080fd5b61018b61046b565b341561025957600080fd5b6101b2600160a060020a036004351661047b565b341561027857600080fd5b61018b610496565b341561028b57600080fd5b610293610521565b604051600160a060020a03909116815260200160405180910390f35b34156102ba57600080fd5b6100f2610530565b34156102cd57600080fd5b61018b600160a060020a0360043516602435610567565b34156102ef57600080fd5b6101b2600160a060020a03600435811690602435166105a0565b341561031457600080fd5b610328600160a060020a03600435166105cb565b005b60408051908101604052600d81527f5a68616f205368616f2048756900000000000000000000000000000000000000602082015281565b60035460009060a060020a900460ff161561037b57600080fd5b6103858383610621565b9392505050565b60005481565b60035460009060a060020a900460ff16156103ac57600080fd5b600160a060020a03831615156103c157600080fd5b6103cc8484846106c7565b949350505050565b67016345785d8a000081565b600881565b60035460009033600160a060020a0390811691161461040357600080fd5b60035460a060020a900460ff16151561041b57600080fd5b6003805474ff0000000000000000000000000000000000000000191690557f7805862f689e2f13df9f062ff482ad3ad112aca9e0847911ed832e158c525b3360405160405180910390a150600190565b60035460a060020a900460ff1681565b600160a060020a031660009081526001602052604090205490565b60035460009033600160a060020a039081169116146104b457600080fd5b60035460a060020a900460ff16156104cb57600080fd5b6003805474ff0000000000000000000000000000000000000000191660a060020a1790557f6985a02210a168e66602d3235cb6db0e70f92b3ba4d376a33c0f3d9434bff62560405160405180910390a150600190565b600354600160a060020a031681565b60408051908101604052600381527f5a73680000000000000000000000000000000000000000000000000000000000602082015281565b60035460009060a060020a900460ff161561058157600080fd5b600160a060020a038316151561059657600080fd5b61038583836107da565b600160a060020a03918216600090815260026020908152604080832093909416825291909152205490565b60035433600160a060020a039081169116146105e657600080fd5b600160a060020a0381161561061e576003805473ffffffffffffffffffffffffffffffffffffffff1916600160a060020a0383161790555b50565b60008115806106535750600160a060020a03338116600090815260026020908152604080832093871683529290522054155b151561065e57600080fd5b600160a060020a03338116600081815260026020908152604080832094881680845294909152908190208590557f8c5be1e5ebec7d5bd14f71427d1e84f3dd0314c0f7b2291e5b200ac8c7c3b9259085905190815260200160405180910390a350600192915050565b600160a060020a03808416600090815260026020908152604080832033851684528252808320549386168352600190915281205490919061070e908463ffffffff61089916565b600160a060020a038086166000908152600160205260408082209390935590871681522054610743908463ffffffff6108a816565b600160a060020a03861660009081526001602052604090205561076c818463ffffffff6108a816565b600160a060020a03808716600081815260026020908152604080832033861684529091529081902093909355908616917fddf252ad1be2c89b69c2b068fc378daa952ba7f163c4a11628f55a4df523b3ef9086905190815260200160405180910390a3506001949350505050565b600160a060020a033316600090815260016020526040812054610803908363ffffffff6108a816565b600160a060020a033381166000908152600160205260408082209390935590851681522054610838908363ffffffff61089916565b600160a060020a0380851660008181526001602052604090819020939093559133909116907fddf252ad1be2c89b69c2b068fc378daa952ba7f163c4a11628f55a4df523b3ef9085905190815260200160405180910390a350600192915050565b60008282018381101561038557fe5b6000828211156108b457fe5b509003905600a165627a7a72305820d19b6e0391386b3b38e42222c0c5b966526941f375f5b9138aa32fde2fdc8d810029",
  "source": "pragma solidity ^0.4.13;\n\n\nimport \"./zeppelin-solidity/contracts/token/StandardToken.sol\";\nimport \"./zeppelin-solidity/contracts/lifecycle/Pausable.sol\";\n\n\n/**\n * @title Tierion Network Token\n * @dev ERC20 Tierion Network Token (TNT)\n *\n * TNT Tokens are divisible by 1e8 (100,000,000) base\n * units referred to as 'Grains'.\n *\n * TNT are displayed using 8 decimal places of precision.\n *\n * 1 TNT is equivalent to:\n *   100000000 == 1 * 10**8 == 1e8 == One Hundred Million Grains\n *\n * 1 Billion TNT (total supply) is equivalent to:\n *   100000000000000000 == 1000000000 * 10**8 == 1e17 == One Hundred Quadrillion Grains\n *\n * All initial TNT Grains are assigned to the creator of\n * this contract.\n *\n */\ncontract TierionNetworkToken is StandardToken, Pausable {\n\n  string public constant name = 'Zhao Shao Hui';                       // Set the token name for display\n  string public constant symbol = 'Zsh';                                       // Set the token symbol for display\n  uint8 public constant decimals = 8;                                          // Set the number of decimals for display\n  uint256 public constant INITIAL_SUPPLY = 1000000000 * 10**uint256(decimals); // 1 Billion TNT specified in Grains\n\n  /**\n   * @dev TierionNetworkToken Constructor\n   * Runs only on initial contract creation.\n   */\n  function TierionNetworkToken() {\n    totalSupply = INITIAL_SUPPLY;                               // Set the total supply\n    balances[msg.sender] = INITIAL_SUPPLY;                      // Creator address is assigned all\n  }\n\n  /**\n   * @dev Transfer token for a specified address when not paused\n   * @param _to The address to transfer to.\n   * @param _value The amount to be transferred.\n   */\n  function transfer(address _to, uint256 _value) whenNotPaused returns (bool) {\n    require(_to != address(0));\n    return super.transfer(_to, _value);\n  }\n\n  /**\n   * @dev Transfer tokens from one address to another when not paused\n   * @param _from address The address which you want to send tokens from\n   * @param _to address The address which you want to transfer to\n   * @param _value uint256 the amount of tokens to be transferred\n   */\n  function transferFrom(address _from, address _to, uint256 _value) whenNotPaused returns (bool) {\n    require(_to != address(0));\n    return super.transferFrom(_from, _to, _value);\n  }\n\n  /**\n   * @dev Aprove the passed address to spend the specified amount of tokens on behalf of msg.sender when not paused.\n   * @param _spender The address which will spend the funds.\n   * @param _value The amount of tokens to be spent.\n   */\n  function approve(address _spender, uint256 _value) whenNotPaused returns (bool) {\n    return super.approve(_spender, _value);\n  }\n\n}\n",
  "sourcePath": "/viv/tierion-erc20-smart-contract/contracts/TierionNetworkToken.sol",
  "compiler": {
    "name": "solc",
    "version": "0.4.18+commit.9cf6e910.Emscripten.clang"
  },
  "schemaVersion": "1.0.1",
  "updatedAt": "2018-05-03T14:45:06.640Z"
}